S01A00004C656420436F6E74726F6C2043656E7465722E7372656373
S113000012C02CC02BC02AC029C028C027C026C0BB
S113001025C024C023C0C1C518C620C01FC01EC02F
S11300201DC01CC01BC011241FBECFE5D4E0DEBF21
S1130030CDBF10E0A0E6B0E0EAEBF1E102C005902C
S11300400D92A236B107D9F722E0A2E6B0E001C0D2
S11300501D92AF31B207E1F743D1ADC8D1CFCF93F1
S1130060DF93CDB7DEB7A4970FB6F894DEBF0FBE0B
S1130070CDBF9AA389A37CA36BA385E390E025E37A
S113008030E0F90120812E7FFC01208384E390E09D
S113009024E330E0F90120812160FC012083F894FD
S11300A02AC089A19AA1FC010190008007D0029086
S11300B005D001900190019001D017C008D007D05D
S11300C006D005D004D003D002D001D00895A89A58
S11300D0001C0000000008F0A898000000000000C8
S11300E00000000008F4A8980895CF019AA389A3FA
S11300F078940000F8948BA19CA19C0121503109B3
S11301003CA32BA3892B09F0CCCF789480E090E01A
S1130110A8E4B2E489839A83AB83BC832BEA3AEAEA
S11301204AEA50E469817A818B819C81E1D7DC01C0
S1130130CB018D839E83AF83B88720E030E040E815
S113014050E469817A818B819C81D2D7DC01CB0117
S113015089879A87AB87BC8720E030E040E85FE37B
S11301606D817E818F819885B2D688231CF481E0CD
S11301708D87A7C020E03FEF4FE757E469857A8574
S11301808B859C85B1D718160CF074C020E030E044
S11301904AE754E469817A818B819C819CD6DC0195
S11301A0CB018E879F87A88BB98B20E030E04AE78C
S11301B055E46E857F85888999899AD7DC01CB01BE
S11301C08A8B9B8BAC8BBD8B20E030E040E85FE3F7
S11301D06A897B898C899D897AD688232CF481E06D
S11301E090E09F8B8E8B3BC020E03FEF4FE757E4BE
S11301F06A897B898C899D8977D718163CF520E01C
S113020030E040E251E46E857F858889998970D712
S1130210DC01CB01BC01CD01C6D6DC01CB019F8B37
S11302208E8B0FC080E991E0998F888F888D998D8E
S11302300197F1F7998F888F8E899F8901979F8BFA
S11302408E8B8E899F89892B69F73BC06A897B894C
S11302508C899D89A8D6DC01CB019F8B8E8B8E89DE
S11302609F899B8F8A8F8A8D9B8D0197F1F79B8F36
S11302708A8F27C020E030E04FE753E46D817E8110
S11302808F81988531D71816A4F469857A858B8572
S11302909C8589D6DC01CB019D8F8C8F8C8D9D8DA7
S11302A09F8F8E8F8E8D9F8D0197F1F79F8F8E8FED
S11302B00EC06D817E818F81988575D6DC01CB015E
S11302C08D878D8588A388A18A95F1F788A3A49644
S11302D00FB6F894DEBF0FBECDBFDF91CF91089566
S11302E00F931F93CF93DF93CDB7DEB7C555D109D5
S11302F00FB6F894DEBF0FBECDBF87E690E0F4D40E
S1130300D7D5198283E08A831B8281E390E021E3BD
S113031030E0F9012081277FFC01208381E390E014
S113032021E330E0F90120812B7FFC01208387E366
S113033090E027E330E0F90120812270FC01208362
S113034082E390E022E330E0F90120812C60FC019B
S113035020831C8222C08C81882F90E09C01220F74
S1130360331F280F391F25593E4FF90110829C0174
S1130370220F331F280F391F24593E4FF9011082D1
S11303809C01220F331F280F391FC90183599E4F27
S1130390FC0110828C818F5F8C838C818C33D8F22A
S11303A06CE370E08BE691E05ADE80E090E0A0EA36
S11303B0B1E48D879E87AF87B88B20E030E04AE7B1
S11303C055E46D857E858F85988992D6DC01CB01B5
S11303D0898B9A8BAB8BBC8B20E030E040E85FE3E9
S11303E069897A898B899C8972D588232CF481E068
S11303F090E09E8B8D8B3BC020E03FEF4FE757E4AE
S113040069897A898B899C896FD618163CF520E016
S113041030E040E251E46D857E858F85988968D609
S1130420DC01CB01BC01CD01BED5DC01CB019E8B2F
S11304308D8B0FC080E991E0988F8F8B8F89988D79
S11304400197F1F7988F8F8B8D899E8901979E8BE9
S11304508D8B8D899E89892B69F713C069897A8967
S11304608B899C89A0D5DC01CB019E8B8D8B8D89DA
S11304709E899A8F898F898D9A8D0197F1F79A8F2A
S1130480898F82E390E022E330E0F9012081206843
S1130490FC0120831D82C5C168D48B8780E090E075
S11304A0A0EAB1E48B8F9C8FAD8FBE8F20E030E04B
S11304B04AE755E46B8D7C8D8D8D9E8D19D6DC01BC
S11304C0CB018F8F98A3A9A3BAA320E030E040E822
S11304D05FE36F8D78A189A19AA1F9D488232CF4C4
S11304E081E090E09CA38BA33BC020E03FEF4FE76B
S11304F057E46F8D78A189A19AA1F6D518163CF519
S113050020E030E040E251E46B8D7C8D8D8D9E8D3A
S1130510EFD5DC01CB01BC01CD0145D5DC01CB011C
S11305209CA38BA30FC080E991E09EA38DA38DA112
S11305309EA10197F1F79EA38DA38BA19CA1019786
S11305409CA38BA38BA19CA1892B69F713C06F8DEE
S113055078A189A19AA127D5DC01CB019CA38BA307
S11305608BA19CA198A78FA38FA198A50197F1F7C0
S113057098A78FA38B85882F90E08230910509F48A
S11305804BC18330910519F0019761F148C11E8276
S113059025C08E81882F90E09C01220F331F280FE5
S11305A0391F25593E4F4AE7F90140839C01220F28
S11305B0331F280F391F24593E4F4AE7F90140835E
S11305C09C01220F331F280F391FC90183599E4FE5
S11305D02AE7FC0120838E818F5F8E838E8188328F
S11305E0C0F21DC11F8213C18F81882389F4CE01FB
S11305F08D5A9F4FFC011082CE018D5A9F4F29E1E5
S1130600FC012183CE018D5A9F4FFC01128213C03D
S11306108F81813081F4CE018D5A9F4FFC0110826D
S1130620CE018D5A9F4FFC011182CE018D5A9F4FEE
S113063029E1FC01228399D38C878F81880F880F4D
S1130640982F990F990F890F888719C08885282FAB
S113065030E0C901880F991F820F931F9C0125590F
S11306603E4FCE018D5A9F4FFC0180819181A28122
S1130670F90180839183A28388858F5F8887888529
S1130680282F30E08C85482F50E08F81682F70E050
S1130690E4E1E69FC001E79F900D1124840F951FAC
S11306A0281739079CF28F81880F880F982F990F8C
S11306B0990F980F8C85890F898723C08985882F86
S11306C090E09C01220F331F280F391F25593E4FFC
S11306D044E0F90140839C01220F331F280F391F86
S11306E024593E4FF90110829C01220F331F280F19
S11306F0391FC90183599E4FFC01108289858F5F80
S113070089878985282F30E08C85882F90E0AC017B
S11307104C5E5F4F8F81682F70E0E4E1E69FC0017B
S1130720E79F900D1124840F951F2817390734F281
S113073080E090E0A0E2B1E489A79AA7ABA7BCA7A8
S113074020E030E04AE755E469A57AA58BA59CA58D
S1130750CFD4DC01CB018DA79EA7AFA7B8AB20E017
S113076030E040E85FE36DA57EA58FA598A9AFD3DF
S113077088232CF481E090E09AAB89AB3BC020E065
S11307803FEF4FE757E46DA57EA58FA598A9ACD49C
S113079018163CF520E030E040E251E469A57AA562
S11307A08BA59CA5A5D4DC01CB01BC01CD01FBD359
S11307B0DC01CB019AAB89AB0FC080E991E09CAB23
S11307C08BAB8BA99CA90197F1F79CAB8BAB89A947
S11307D09AA901979AAB89AB89A99AA9892B69F738
S11307E013C06DA57EA58FA598A9DDD3DC01CB012F
S11307F09AAB89AB89A99AA99EAB8DAB8DA99EA909
S11308000197F1F79EAB8DAB8F818F5F8F838F81C3
S1130810823008F4E9CE03C0A8D28B83000081E0C3
S11308208D8331D3892B09F037CE8B81882309F44A
S1130830E4C01A8623C08A85882F90E09C01220F89
S1130840331F280F391F25593E4FF90110829C018F
S1130850220F331F280F391F24593E4F4981F901B4
S113086040839C01220F331F280F391FC90183596C
S11308709E4FFC0110828A858F5F8A878A85883221
S1130880D0F299818A81890F8983998189E8989F17
S1130890812D11248295869587702CE3829F802D6B
S11308A01124F92FF81B8F2F882319F48A8181953D
S11308B08A836CE370E08BE691E0D1DB80E090E02A
S11308C0A0EAB1E48FAB98AFA9AFBAAF20E030E0B3
S11308D04AE755E46FA978AD89AD9AAD09D4DC0136
S11308E0CB018BAF9CAFADAFBEAF20E030E040E8B2
S11308F05FE36BAD7CAD8DAD9EADE9D2882344F44E
S113090021E030E0CE01CF96FC01318320835BC02F
S113091020E03FEF4FE757E46BAD7CAD8DAD9EAD6E
S1130920E3D318160CF042C020E030E040E251E47A
S11309306FA978AD89AD9AADDBD3DC01CB01BC01E5
S1130940CD0131D3DC01CB019E01215C3F4FF90184
S11309509183808323C0CE018F5B9F4F20E931E0D8
S1130960FC0131832083CE018F5B9F4FFC0180818A
S113097091810197F1F79E012F5B3F4FF90191831C
S11309808083CE01CF96FC01808191819C0121500E
S11309903109CE01CF96FC0131832083CE01CF965D
S11309A0FC0180819181892BB1F627C06BAD7CADB0
S11309B08DAD9EADF8D2DC01CB019E01215C3F4F91
S11309C0F90191838083CE018D5B9F4F9E01215C51
S11309D03F4FF90120813181FC0131832083CE0115
S11309E08D5B9F4FFC01808191810197F1F79E01FE
S11309F02D5B3F4FF901918380838D81882309F416
S1130A00CBC08B81882309F0C7C06CE370E08BE610
S1130A1091E025DB9E012B5B3F4F80E090E0A0EA54
S1130A20B1E4F90180839183A283B3838E01075BD0
S1130A301F4FCE018B5B9F4F20E030E04AE755E427
S1130A40FC01608171818281938152D3DC01CB01ED
S1130A50F80180839183A283B383CE01875B9F4F88
S1130A6020E030E040E85FE3FC0160817181828135
S1130A7093812DD288234CF4CE01835B9F4F21E0D8
S1130A8030E0FC013183208369C0CE01875B9F4F36
S1130A9020E03FEF4FE757E4FC01608171818281E0
S1130AA0938122D318160CF048C0CE018B5B9F4F64
S1130AB020E030E040E251E4FC01608171818281F8
S1130AC0938116D3DC01CB018E01035B1F4FBC0164
S1130AD0CD0169D2DC01CB01F8019183808324C06C
S1130AE0CE01815B9F4F20E931E0FC0131832083FB
S1130AF0CE01815B9F4FFC01808191810197F1F7C9
S1130B009E01215B3F4FF90191838083CE01835B7A
S1130B109F4F9E01235B3F4FF9012081318121507A
S1130B203109FC0131832083CE01835B9F4FFC019B
S1130B3080819181892BA1F62BC08E01035B1F4F0D
S1130B40CE01875B9F4FFC0160817181828193811B
S1130B502AD2DC01CB01F80191838083CE018F5A24
S1130B609F4F9E01235B3F4FF90120813181FC019E
S1130B7031832083CE018F5A9F4FFC018081918164
S1130B800197F1F79E012F5A3F4FF901918380831A
S1130B9080E690E05BD11D8274CC1F920F9200908E
S1130BA05F000F9211242F933F938F939F93EF93A2
S1130BB0FF93CF93DF93CDB7DEB72597DEBFCDBFCD
S1130BC08BE290E0FC0180818A838CE290E0FC015E
S1130BD080818B838A818871898380916601909159
S1130BE0670101968F7799279D838C838091680193
S1130BF0909169012C813D812817390719F482E00D
S1130C0089830DC08C819D819093670180936601D7
S1130C108C819D818E519F4F2B81FC012083898182
S1130C2080936A010F900F900F900F900F90DF91B7
S1130C30CF91FF91EF919F918F913F912F910F90C1
S1130C4000925F000F901F9018951F920F920090D2
S1130C505F000F9211242F933F938F939F93EF93F1
S1130C60FF93CF93DF9300D0CDB7DEB7209162011D
S1130C7030916301809164019091650128173907CF
S1130C80D1F0809164019091650101968F77992745
S1130C909A83898389819A81909365018093640101
S1130CA08CE290E029813A812E593F4FF90120814D
S1130CB0FC01208309C08AE290E02AE230E0F901D5
S1130CC020812F7DFC0120830F900F90DF91CF9125
S1130CD0FF91EF919F918F913F912F910F900092EF
S1130CE05F000F901F901895CF93DF9300D0CDB77E
S1130CF0DEB79A8389831092630110926201109285
S1130D0065011092640110926701109266011092BD
S1130D1069011092680189819A81992354F48BE2C4
S1130D2090E022E0FC01208389819A819F779A8355
S1130D30898380E490E029813A81232F3327FC01C1
S1130D40208389E290E02981FC0120838AE290E0FB
S1130D5028E9FC01208380E490E026E8FC0120835C
S1130D600F900F90DF91CF910895CF93DF9300D030
S1130D701F92CDB7DEB72091660130916701809153
S1130D806801909169012817390719F480E091E00E
S1130D9021C0809168019091690101968F7799270C
S1130DA09A83898389819A819093690180936801E8
S1130DB089819A818E519F4FFC0180818B83809120
S1130DC06A01882F90E0382F22278B81882F90E0AA
S1130DD0820F931F0F900F900F90DF91CF91089582
S1130DE0CF93DF9300D01F92CDB7DEB78B83809172
S1130DF062019091630101968F7799279A83898381
S1130E000000809164019091650129813A8128173D
S1130E103907B9F389819A818E599F4F2B81FC013F
S1130E20208389819A8190936301809362018AE28D
S1130E3090E02AE230E0F90120812062FC01208365
S1130E400F900F900F90DF91CF910895CF93DF9380
S1130E5000D0CDB7DEB79A8389830AC089819A818D
S1130E609C012F5F3F4F3A832983FC018081B8DFC7
S1130E7089819A81FC018081882381F70F900F90EA
S1130E80DF91CF910895CF93DF93CDB7DEB7209153
S1130E906601309167018091680190916901A9010F
S1130EA0481B590BCA018F779927DF91CF91089579
S1130EB0CF93DF93CDB7DEB780916801909169013C
S1130EC09093670180936601DF91CF91089597D045
S1130ED008F481E008950CD0CDC0C5D040F0BCD05A
S1130EE030F021F45F3F19F0AEC05111F7C0B1C02A
S1130EF0D2D098F39923C9F35523B1F3951B550B1D
S1130F00BB27AA2762177307840738F09F5F5F4FD8
S1130F10220F331F441FAA1FA9F333D00E2E3AF019
S1130F20E0E830D091505040E695001CCAF729D033
S1130F30FE2F27D0660F771F881FBB1F2617370782
S1130F404807AB07B0E809F0BB0B802DBF01FF27B2
S1130F5093585F4F2AF09E3F510568F074C0BEC09D
S1130F605F3FECF3983EDCF3869577956795B795EC
S1130F70F7959F5FC9F7880F911D9695879597F907
S1130F800895E1E0660F771F881FBB1F6217730780
S1130F908407BA0720F0621B730B840BBA0BEE1F95
S1130FA088F7E09508957FD088F09F5790F0B92F87
S1130FB09927B751A0F0D1F0660F771F881F991FAA
S1130FC01AF0BA95C9F712C0B13081F086D0B1E0F9
S1130FD0089583C0672F782F8827B85F39F0B93F09
S1130FE0CCF3869577956795B395D9F73EF49095AC
S1130FF08095709561957F4F8F4F9F4F0895990FFE
S11310000008550FAA0BE0E8FEEF16161706E807CE
S1131010F907C0F012161306E407F50798F0621BEF
S1131020730B840B950B39F40A2661F0232B242BC4
S1131030252B21F408950A2609F4A140A6958FEFE3
S1131040811D811D089597F99F6780E870E060E035
S113105008959FEF80EC089500240A94161617064D
S113106018060906089500240A9412161306140695
S113107005060895092E0394000C11F4882352F0F8
S1131080BB0F40F4BF2B11F460FF04C06F5F7F4FB0
S11310908F4F9F4F089557FD9058440F551F59F097
S11310A05F3F71F04795880F97FB991F61F09F3F51
S11310B079F087950895121613061406551FF2CF7A
S11310C04695F1DF08C0161617061806991FF1CFCA
S11310D086957105610508940895E894BB276627F1
S11310E07727CB0197F908958ADF08F48FEF0895E5
S11310F00BD0C0CFB1DF28F0B6DF18F0952309F08C
S1131100A2CFA7CF1124EACFC6DFA0F3959FD1F3D6
S1131110950F50E0551F629FF001729FBB27F00DA1
S1131120B11D639FAA27F00DB11DAA1F649F6627F6
S1131130B00DA11D661F829F2227B00DA11D621F45
S1131140739FB00DA11D621F839FA00D611D221FFF
S1131150749F3327A00D611D231F849F600D211DE3
S1131160822F762F6A2F11249F5750408AF0E1F086
S113117088234AF0EE0FFF1FBB1F661F771F881FCF
S113118091505040A9F79E3F510570F05CCFA6CF17
S11311905F3FECF3983EDCF3869577956795B795BA
S11311A0F795E7959F5FC1F7FE2B880F911D9695E4
S10D11B0879597F90895F894FFCF8E
S10511BA7200BD
S9030000FC
